:020000040800F2
:1000000038070020A50100085D15000859150008F3
:100010005B1500080B0700087518000800000000B9
:10002000000000000000000000000000AD15000806
:1000300055070008000000005F150008AF15000814
:10004000BF010008BF010008BF010008BF01000890
:10005000BF010008BF010008BF010008BF01000880
:10006000BF010008BF010008BF010008BF01000870
:10007000BF010008BF010008BF010008BF01000860
:10008000BF010008BF010008BF010008BF01000850
:10009000BF010008BF010008BF010008BF01000840
:1000A000BF010008BF010008BF010008BF01000830
:1000B000BF010008BF010008BF010008BF01000820
:1000C000BF010008BF010008BF010008BF01000810
:1000D000BF0100085D18000869180008BF0100088A
:1000E000BF010008BF010008BF01000800F002F8CE
:1000F00000F048F80AA090E8000C82448344AAF17A
:100100000107DA4501D100F03DF8AFF2090EBAE877
:100110000F0013F0010F18BFFB1A43F0010318473B
:10012000BC180000DC180000103A24BF78C878C161
:10013000FAD8520724BF30C830C144BF04680C60ED
:10014000704700000023002400250026103A28BF35
:1001500078C1FBD8520728BF30C148BF0B60704739
:10016000642900F08780002070471FB500F06AFA0C
:1001700004000020002101F00FFC401C60601FBD46
:1001800010B510BD00F039FA1146FFF7EEFF01F08F
:1001900083FB00F069FA03B4FFF7F2FF03BC00F041
:1001A000ADFA00000948804709480047FEE7FEE72E
:1001B000FEE7FEE7FEE7FEE7FEE7FEE7FEE7FEE717
:1001C00004480549054A064B704700000F16000811
:1001D000ED00000838010020380700203803002017
:1001E000380300200FB41CB5074B06AA7B446946B0
:1001F0000090059800F055F90020694600F064F978
:100200001CBC5DF814FB0000D90200002DE9F04190
:100210000E460446002020622046E168884730B33D
:10022000252805D0D4E901219047206A401CF2E737
:10023000E168204600278847050018D0A5F1410055
:10024000192802D820354FF4006732462946204647
:100250002760FFF785FF40B1012804D0F61D26F086
:1002600007060836D8E7361DD6E72846DAE7206ABB
:10027000BDE8F0812DE9F04106460024106875299B
:10028000314616A510D0AFF30080002802DA4042B4
:1002900013A507E031688A0701D512A502E04907D6
:1002A00004D511A5012401E0AFF3008000210A224A
:1002B00006F1240709E0B0FBF2FCB0FBF2F302FB0D
:1002C0001C00303078541846491C0028F3D12346CE
:1002D0002A463046BDE8F04100F084B80000000036
:1002E0002D0000002B0000002000000070B5064625
:1002F00000F074F80468054630460A22002100F038
:10030000E8F82C6070BD10B5431C02E010F8011B2A
:1003100071B18107FAD14FF0013202C88C1A8C43B7
:1003200014EAC211F9D0C01A0A0603D0C01E10BDCB
:10033000C01A10BD0A0401D0801E10BD0902FCD0F5
:10034000401E10BD4FF000020429C0F0128010F0D2
:10035000030C00F01B80CCF1040CBCF1020F18BFA1
:1003600000F8012BA8BF20F8022BA1EB0C0100F034
:100370000DB85FEAC17C24BF00F8012B00F8012B07
:1003800048BF00F8012B70474FF0000200B513463C
:1003900094469646203922BFA0E80C50A0E80C50A5
:1003A000B1F12001BFF4F7AF090728BFA0E80C5056
:1003B00048BF0CC05DF804EB890028BF40F8042B4F
:1003C00008BF704748BF20F8022B11F0804F18BFBC
:1003D00000F8012B7047704770477047004870471E
:1003E000D40000202DE9F0470D4699469246044678
:1003F00000F124080168880604D5E06921F01001A5
:10040000216000E00120A84201DD471B00E0002739
:10041000A1697A1902EB0900081AA0612078C006C8
:1004200002D42046AFF30080002608E0D4E9012181
:100430001AF806009047206A401C761C20624E4540
:10044000F4DB2078C0060AD52046AFF3008006E032
:10045000D4E9012130209047206A401C2062381ED8
:10046000A7F10107F4DC07E0D4E9012118F8050041
:100470009047206A401C2062281EA5F10105F3DC8C
:100480002046AFF300802078000602D50220BDE8A8
:10049000F0870120FBE7000001694A1C026108782F
:1004A000704700B58FB0CDE90131002105910549B4
:1004B0007944CDE9031011466846FFF7A7FE0FB057
:1004C00000BD0000E5FFFFFF0A6802F8010B0A60AB
:1004D00070472DE9F04791460F46804604460026B6
:1004E00014F8015B2DB100F031F80068405DC007E1
:1004F000F6D12B2D02D02D2D18D0641E4A46394638
:10050000204600F02BF827B13968A14201D1C7F885
:1005100000804FF0020471050BD54042002803DD36
:10052000FFF75CFF0460A007BDE8F08746F4806633
:10053000E4E70028F8DAFFF751FF04606FF00040AD
:10054000F2E7000000487047D400002010B500F02A
:1005500079F8001D10BD00BF411400002DE9F05FC7
:10056000824615468B4600270AF10104B9460078F9
:10057000302801D09DB113E014F8010B0127782831
:1005800003D0582801D045B10AE00DB1102D07D194
:10059000002714F8010B102502E0082500E00A25C9
:1005A0000026B0460EE005FB080005FB06F101271A
:1005B0001FFA80F801EB1046B6F5803F00D3B9462C
:1005C00014F8010B294600F041F80028EBDABBF1E2
:1005D000000F05D00FB1641E00E05446CBF8004078
:1005E000B9F1000F06D0FFF7F9FE02210160C81E25
:1005F000BDE8F09F48EA0640FAE77546FFF7A2FF1C
:10060000AE4605006946534620F00700854618B0FF
:1006100020B5FFF7D5FDBDE820404FF000064FF0B4
:1006200000074FF000084FF0000B21F00701AC4627
:10063000ACE8C009ACE8C009ACE8C009ACE8C00946
:100640008D46704700487047F40000203A2800D2D9
:10065000303820F02002412A01D3A2F1370088422D
:1006600001D34FF0FF30704710B50446AFF3008060
:100670002046BDE81040FFF78EBD00004FF0013C62
:1006800050F8042B51F8043B9A4221D1A2EB0C0301
:10069000934313EACC1317D150F8042B51F8043BC1
:1006A0009A4215D1A2EB0C03934313EACC130BD15E
:1006B00050F8042B51F8043B9A4209D1A2EB0C03E9
:1006C000934313EACC13DBD04FF00000704700BF18
:1006D000D01A01BAB1FA81F101F0180122FA01F041
:1006E000CB40C1F12001DBB2C0B2C01A2CFA01F339
:1006F000D11A914311EAC311E6D17047014918207C
:10070000ABBEFEE7260002007047FEE770B50F4C57
:1007100000252078012809D10D48FFF7E7FD206169
:10072000A1780B48FFF70EFEA570257060780128B0
:100730000BD107480A30FFF7D9FD60610448E17822
:100740000A30FFF7FFFDE570657070BD0000002006
:10075000BF0000207047000010B500F081F9074C81
:10076000A168401AB0F5FA7F07D94FF40051044848
:1007700000F068F900F074F9A06010BD00000020DE
:100780000010014010B590F821100022022905D078
:100790000421816380F82020012010BD01680B68CE
:1007A00023F00E030B6001680B6823F001030B605C
:1007B00090F84030C46B012101FA03F3636080F8C4
:1007C000211080F82020104610BD000010B590F8D0
:1007D00021100024022903D00421816301243DE07B
:1007E00001680A6822F00E020A6001680A6822F0B5
:1007F00001020A601A4A0168914201D1012121E0F7
:10080000174A1432914201D110211BE0144A2832B8
:10081000914201D1891515E0114A3C32914201D132
:1008200089140FE00E4A5032914202D14FF48031C8
:1008300008E00B4A6432914202D14FF4801101E08A
:100840004FF08071064A083A5160012180F821106A
:10085000002180F82010416B01B18847204610BD6F
:10086000080002402DE9F84FDFF8B891002409F1A3
:10087000040A0AF1040B23460F270BF1040EC9E00A
:100880000125A5402A40AA427DD1674ED1F804C077
:10089000ACEB0608B44532D014DCBCF1030F3AD0FF
:1008A00009DCBCF1000F2AD0BCF1010F1CD0BCF157
:1008B000020F31D11DE0BCF1110F17D0BCF1120FA6
:1008C0002AD119E0B8F5881F19D006DCB8F5803FA9
:1008D00015D0B8F5801F1FD111E0B8F5001F0ED05C
:1008E000B8F5041F18D10AE0CB6815E0CB681B1DD2
:1008F00012E0CB6808330FE0CB680C330CE08B6858
:100900002BB1012B4FF0080303D0456104E0042311
:1009100002E0056100E00023FF2A01D8064601E05D
:1009200000F104064FEA840501D9A5F12005D6F8A7
:10093000008007FA05FC28EA0C0803FA05F548EAE6
:100940000508C6F800804D68ED0062D5374DAE69E8
:1009500046F00106AE61AD6924F0030605F001051D
:100960000095334D06EB050CDCF80850A607360F52
:1009700007FA06F825EA0805DFF8B880404503D1F4
:100980004FF0000817E044E0DFF8AC80404502D1AA
:100990004FF001080FE0DFF8A480404502D14FF08E
:1009A000020808E0DFF89880404502D14FF00308C4
:1009B00001E04FF0040808FA06F848EA0508CCF808
:1009C00008804D68D9F80060ED034D4601D5164307
:1009D00000E096432E604D68DAF80060AD0355469E
:1009E00001D5164300E096432E604D68DBF80060A9
:1009F000ED025D4601D5164300E096432E604D683A
:100A0000DEF80060AD02754601D5164300E096435E
:100A10002E60641C0D682A46E5407FF431AFBDE8C6
:100A2000F88F000000040140000011100010024087
:100A30000000014000080140000C0140001001408E
:100A400000140140C26821EA02030A4043EA02415D
:100A5000016170470AB1016170470904FBE70000BA
:100A60000148806870470000180000200248816833
:100A7000027811448160704718000020074810B5C3
:100A8000016841F010010160032000F075F80F20AB
:100A900000F006F800F024F8002010BD002002400D
:100AA00070B50D4D04464FF47A712878B1FBF0F023
:100AB0000A490968B1FBF0F000F0ECFA48B9102CD3
:100AC00007D200222146501E00F036F800206C604C
:100AD00070BD012070BD000018000020240000201F
:100AE0000C4808B5816941F001018161816901F01B
:100AF00001010091C16941F08051C161C06900F0FC
:100B0000805000900448416821F0E06141F000719C
:100B1000416008BD0010024000000140002809DBD0
:100B200000F01F02012191404009800000F1E02007
:100B3000C0F8001170470000F0B40E4B1B680C4663
:100B4000C3F30223C3F10705042D00D90425191DA1
:100B5000072901D2002300E0DB1E012606FA05F179
:100B6000491E214099409E40761E16403143F0BCFC
:100B700000F081BE0CED00E0064900F007020868B5
:100B80004FF6FF03184040EA0220034A1043086072
:100B9000704700000CED00E00000FA052DE9F04779
:100BA0000F46050061D0434E306800F00700B842A0
:100BB00009D2306820F0070038433060306800F018
:100BC0000700B84251D128683B4C810712D5400735
:100BD00003D5606840F4E06060602878000703D5C2
:100BE000606840F4605060606068A96820F0F000C0
:100BF000084360602878C00728D06868012810D0B2
:100C00002168022810D0890700292EDA616821F0B6
:100C1000030101436160FFF723FF804641F28839F9
:100C20000DE021688903EFE78901EDE7FFF718FF81
:100C3000A0EB0801494502D90320BDE8F0876068B0
:100C4000696800F00C00B0EB810FEFD1306800F064
:100C50000700B8420BD9306820F0070038433060F5
:100C6000306800F00700B84201D00120E5E728789D
:100C7000400705D56068E96820F4E06008436060DB
:100C80002878000706D56068296920F4605040EA9A
:100C9000C100606000F038F86168084AC1F30311D0
:100CA000515CC8400649086006480068FFF7F8FE36
:100CB0000020C2E70020024000100240C4190008D2
:100CC000240000201C0000200448054900684968F1
:100CD000044AC1F30221515CC8407047240000203F
:100CE00000100240D419000804480549006849680A
:100CF000044AC1F3C221515CC8407047240000205F
:100D000000100240D419000812A185B00FC98DE867
:100D10000F0014A0144A006804905168134801F0B1
:100D20000C03042B10D0082B0ED1C1F38343C9034D
:100D30001DF803000AD5516804AAC1F34041515C73
:100D40000A4A5043B0FBF1F005B0704708494843E8
:100D5000FAE7000002030405060708090A0B0C0D58
:100D60000E0F1010010200000010024000127A0065
:100D700000093D002DE9F84F040070D02078C04DE7
:100D8000C00749D06868C0F38100012807D06868AF
:100D9000C0F38100022809D16868C00306D528681D
:100DA000800339D560680028E7D035E06068B0F589
:100DB000803F0BD010B1B0F5A02F11D0286820F4DF
:100DC00080302860286820F4802002E0286840F401
:100DD00080302860606890B1FFF742FE06460AE066
:100DE000286840F480202860F0E700BFFFF738FE55
:100DF000801B642873D828688003F7D50CE0FFF7C0
:100E00002FFE064605E000BFFFF72AFE801B642880
:100E1000F0D828688003F7D420789A4E80074FF0E6
:100E200001094FF0000839D5686810F00C0F07D0A1
:100E30006868C0F38100022809D16868C00306D43D
:100E40002868800714D52069012808D110E020699E
:100E5000B0B1C6F80090FFF703FE074605E00AE1CF
:100E6000FFF7FEFDC01B0228C4D828688007F7D50D
:100E70002868616920F0F80040EAC10028600DE0B0
:100E8000C6F80080FFF7ECFD074604E0FFF7E8FD39
:100E9000C01B022823D828688007F7D420780007D1
:100EA0002CD57948A169D9B1C0F80090FFF7D8FDD9
:100EB000074604E0FFF7D4FDC01B02280FD8686A7C
:100EC0008007F7D571484FF4FA510068B0FBF1F094
:100ED000009000BF0098411E0091FAD20EE080E021
:100EE000C0F80080FFF7BCFD074604E0FFF7B8FD3F
:100EF000C01B022875D8686A8007F7D4207840079D
:100F000060D5E8690027C00008D4E86940F0805047
:100F1000E861E869012700F0805000905C480168B2
:100F2000C90513D40168834641F480710160FFF75D
:100F300097FD824606E000BFFFF792FDA0EB0A0096
:100F400064284ED8DBF80000C005F5D5E06801281C
:100F50000AD008B1052813D0286A20F001002862C1
:100F6000286A20F0040002E0286A40F001002862AC
:100F7000E06841F2883B98B1FFF772FD82460BE0D2
:100F8000286A40F004002862EEE700BFFFF768FD22
:100F9000A0EB0A0159455AD8286A8007F6D50CE01B
:100FA000FFF75EFD824605E0FFF75AFDA0EB0A0160
:100FB00059454CD8286A8007F6D41FB1E86920F05B
:100FC0008050E861E06988B36968C1F38101022952
:100FD00044D00228C6F8608004D0FFF741FD0446E3
:100FE00038E034E0FFF73CFD074604E0FFF738FD4A
:100FF000C01B02282BD828688001F7D4206AB0F5DE
:10100000803F05D16868A16820F40030084368601B
:10101000D4E908010843696821F474110843686041
:10102000C6F86090FFF71CFD044606E025E000BF0F
:10103000FFF716FD001B022809D828688001F7D5A4
:101040001BE000BFFFF70CFD001B022802D90320A4
:10105000BDE8F88F28688001F4D40EE00128F7D0AD
:101060006868226A00F48031914204D1616A00F418
:101070007010884201D00120EAE70020E8E7000074
:10108000001002400000424280044242240000203E
:101090000070004010B5401EB0F1807F01D30120E8
:1010A00010BD4FF0E02460610F21601700F0E3FBFA
:1010B0000020A06107202061002010BD704770470C
:1010C000F8B5026804461068D168536910F00F0F34
:1010D0004FF0000553D003F0010601F49077374339
:1010E0005FD0C20705D0CA0503D5226C42F00102C9
:1010F0002264420705D5DA0703D0226C42F00202CF
:101100002264820705D5DA0703D0226C42F004027C
:101110002264020707D501F02002324303D0226C7B
:1011200042F008022264226C002A34D0800604D5E2
:10113000880602D5204600F08BFA20684069216CB1
:10114000C0F38010090700D430B3204600F068FADD
:101150002068416949061BD5416921F04001416180
:10116000A06BA8B158494163A06BFFF72FFB002883
:1011700011D0A06B416B01B0BDE8F0400847830679
:101180000FD58B060DD52046BDE8F84000F060BABB
:101190002046FFF794FFF8BD2046FFF790FF256437
:1011A000F8BD266B2023012E52D1C60650D5CE069F
:1011B0004ED5106850680090506940062AD5A16B42
:1011C000086840680004000CEAD0A68D8642E7D982
:1011D000E0858869202818D0D06820F48070D0601D
:1011E0002068416921F0010141612068416921F0D5
:1011F0004001416184F83E3025632068C16821F0D8
:101200001001C160A06BFFF7BDFAA08DE18D401AFF
:1012100081B219E0A08DE18D401A81B2E08D0028E5
:10122000BED00029BCD0D06820F49070D060206877
:10123000426922F00102426184F83E302563206851
:10124000C26822F01002C2602046FFF737FFF8BDE7
:1012500005062BD50D0629D594F83D002128F6D199
:10126000A068B0F5805F01D12069B0B1206A411C4F
:101270002162216800784860E08C401E0004000C68
:10128000E084E4D12068C16821F08001C160206859
:10129000C16841F04001C160F8BD206A0088C0F318
:1012A00008005060206A801C2062E5E74006F3D504
:1012B0004806F1D5D168204621F04001D16084F87C
:1012C0003D3000F048F9F8BD1116000870B5040073
:1012D00004D094F83D00002510B106E0012070BD57
:1012E00084F83C50204600F023F8242084F83D0088
:1012F0002068C16821F40051C160204600F004FA62
:101300002068016921F4904101612068416921F060
:101310002A0141612068C16841F40051C16025641F
:10132000202084F83D0084F83E00002070BD0000BD
:1013300070B586B0002400940194029403942E4E5C
:1013400003682E49022003222D4DB34226D18B691A
:1013500043F480438B618B6903F4804304938B696E
:1013600043F004038B618969039201F00401049145
:101370000102CDE9001069462846FFF773FA2815E7
:10138000CDE90004694628460294FFF76BFA002273
:1013900003212520FFF7D0FB252028E0194EB3427A
:1013A00027D1CB6943F40033CB61CB6903F400331D
:1013B00004938B6943F004038B618969039201F004
:1013C000040104910421CDE9001069462846FFF785
:1013D00049FA0820CDE90004694628460294FFF73F
:1013E00041FA002204212620FFF7A6FB2620FFF762
:1013F00095FB06B070BD00000038014000100240AF
:10140000000801400044004090F83E30202B0ED1EF
:1014100059B152B190F83C30012B08D0012380F82B
:101420003C300023036300F0CBB901207047022059
:101430007047000070B51949054600680968012623
:10144000174C88420FD1154AA07853322179115494
:10145000401CA0700A2900D1267011490122091DE3
:101460000E48FFF7D1FF0D492868443909688842C2
:1014700012D10A4AE0785D3261791154401CE07063
:101480000A2900D166700649BDE870400348012270
:10149000491D4438FFF7B8BF70BD00006C00002044
:1014A000000000202DE9F843044690F83D001F4657
:1014B00016460D4620284CD1C5B1BEB194F83C006B
:1014C000012846D0012084F83C004FF00008C4F801
:1014D0004080212084F83D00FFF7C2FAA6848146AF
:1014E000E684A068B0F5805F03D004E00120BDE889
:1014F000F883206928B12E465FF0000584F83C800F
:101500000EE00026FAE78021204600F074F9A0B929
:10151000AEB116F8010B21684860E08C401EE084F3
:10152000E08C4B464FF0000200970028EBD14FF0C3
:101530004001204600F05FF930B10320D7E735F8CD
:10154000020BC0F30800E6E7202084F83D000020ED
:10155000CDE70220CBE77047FEE7FEE7FEE77047E6
:1015600010B5FFF77DFA0D4CE168401A40F6B8312E
:10157000884212D9D4E9042309A10B48FEF732FEB0
:101580000948FEF7C0FE084982B26423A1F1440075
:10159000FFF788FFFFF764FAE06010BD000000204D
:1015A00025642025640A0000B00000207047FFF782
:1015B0005DBA30B58FB028216846FEF7E5FE1421EC
:1015C0000AA8FEF7E1FE02250120049000951020F4
:1015D000059000244FF46010CDE908400795684657
:1015E000FFF7C8FB08B172B6FEE70F20CDE90A0588
:1015F0004FF48060CDE90C4002210AA80E94FFF759
:10160000CDFA002801D072B6FEE70FB030BD7047AA
:1016100010B5406A0021C185C184FFF750FD10BD9F
:101620000168CA6822F49072CA6001684A6922F0AF
:1016300001024A61016B012904D10168CA6822F0E4
:101640001002CA60202180F83E100021016370471B
:1016500008B590F83E10222901D0022008BD82680A
:101660004FF480539A4201D1016921B1816A9A42B3
:101670001BD04AB10AE00268816A5268C2F30802CC
:101680000A80816A891C08E0026972B102685268A6
:1016900002F07F020A70816A491C8162C18D491E75
:1016A0000904090CC18503D019E002685268F1E70A
:1016B0000168CA6822F02002CA600168CA6822F480
:1016C0008072CA6001684A6922F001024A612021E1
:1016D00080F83E10016B012903D0FFF7ABFE00201C
:1016E00008BD002101630168CA6822F01002CA60C7
:1016F00001680A68D20602D50A6849680091818D9E
:10170000FFF7DCFCEBE7000070B5044600680169F8
:10171000E26821F44051114301612169A068084346
:10172000616908432168CA6841F20C639A43024325
:10173000CA6020684169A26921F440711143416186
:101740001E492068884202D1FFF7CEFA01E0FFF778
:10175000BBFA00EBC00101EB00126068642180005D
:10176000B2FBF0F3B3FBF1F36FF018067343B2FB77
:10177000F0F5B2FBF0F605EB8305322303EB05151C
:10178000B5FBF1F5B6FBF1F605F0F00505EB061536
:10179000B2FBF0F6B2FBF0F0B0FBF1F06FF0180224
:1017A000504306EB800003EB0010B0FBF1F0216822
:1017B00000F00F002844886070BD00000038014030
:1017C00081628285C28500210164222280F83E2048
:1017D00080F83C100168CA6842F48072CA600168EF
:1017E0004A6942F001024A610068C16841F0200183
:1017F000C160002070472DE9F041984617460E461B
:101800000446069D1DE0681C1BD02DB1FFF728F98A
:10181000A0EB0800A84214D92068C16821F4D07157
:10182000C1602068416921F001014161202084F8F4
:101830003D0084F83E00002084F83C000320BDE811
:10184000F0812068006836EA000004D00020B84229
:10185000D9D00020F3E70120F9E700000148FFF7A5
:101860002FBC0000280000200148FFF729BC000021
:101870006C000020FEE70907090E002804DB00F1D8
:10188000E02080F80014704700F00F0000F1E02025
:1018900080F8141D7047000086B0FFF7EFF8FFF7DF
:1018A00088FE0024364800940194029403948169D0
:1018B00041F010018161816901F010010491816999
:1018C00041F00401816180692E4E00F004004FF464
:1018D00000550490002229463046FFF7BBF801204E
:1018E0000095CDE901040220039069463046FEF7D9
:1018F000B9FF264824494FF416570160C0E9017426
:101900004FF00C08C460C0E904488461C461FFF76B
:10191000DDFC08B172B6FEE71C481D494438016081
:10192000C0E90174C460C0E904488461C461FFF780
:10193000CDFC08B172B6FEE7012216491348FFF745
:1019400063FD144911480122491C4438FFF75CFD2E
:10195000104C4FF47A77241FFEF7D8FEFFF700FEF5
:101960002069322802DA6069B84202DBFEF7F4FE31
:10197000F2E7012229463046FFF76CF8ECE7000059
:101980000010024000100140004400406C000020A4
:10199000003801400400002010B500290AD0087862
:1019A000002807D005487844FEF768FE002801D0DB
:1019B000002010BD0248784410BD00005600000011
:1019C0004E000000000000000000000001020304BF
:1019D0000607080900000000010203040C1B0008B0
:1019E000000000202800000028010008341B000827
:1019F000280000201007000044010008100100002A
:101A000043000000F8FFFFFF0040404040404040DE
:101A100040404141414141404040404040404040C1
:101A20004040404040404040400502020202020265
:101A300002020202020202020220202020202020B4
:101A400020202002020202020202909090909090C8
:101A50001010101010101010101010101010101086
:101A600010101010020202020202888888888888FA
:101A700008080808080808080808080808080808E6
:101A800008080808020202024000000000000000EE
:101A90000000000000000000000000000000000046
:101AA0000000000000000000000000000000000036
:101AB0000000000000000000000000000000000026
:101AC0000000000000000000000000000000000016
:101AD0000000000000000000000000000000000006
:101AE00000000000000000000000000000000000F6
:101AF00000000000000000000000000000000000E6
:101B000000000000000000000000000000000000D5
:101B100000000000000000000000000000000000C5
:101B200000000000010000001000000000000000A4
:041B30000024F40099
:04000005080000ED02
:00000001FF
